S0100000537072696E745F392E73726563FC
S11300000C9424010C94EA080C9497090C94410173
S11300100C9441010C9453020C9441010C94410141
S11300200C9441010C9441010C9441010C94410144
S11300300C9441010C9441010C942E020C94410146
S11300400C9441010C9441010C9443010C94410122
S11300500C9441010C94EE020C9441010C94410166
S11300600C9441010C944101000000000000005F69
S113007000000007000700147F147F14242A7F2A3D
S11300801223130864623649552250000503000008
S1130090001C2241000041221C0014083E081408E0
S11300A0083E0808005030000008080808080060EE
S11300B060000020100804023E5149453E00427F82
S11300C0400042615149462141454B311814127F89
S11300D01027454545393C4A494930017109050312
S11300E03649494936064949291E0036360000007A
S11300F0563600000814224100141414141400414C
S11301002214080201510906324979413E7E111137
S1130110117E7F494949363E414141227F41412276
S11301201C7F494949417F090909013E4149497AEE
S11301307F0808087F00417F41002040413F017F44
S1130140081422417F404040407F020C027F7F041C
S113015008107F3E4141413E7F090909063E415155
S1130160215E7F09192946464949493101017F0128
S1130170013F4040403F1F2040201F3F4038403F48
S11301806314081463070870080761514945430064
S11301907F41410002040810200041417F00040215
S11301A00102044040404040000102040020545435
S11301B054787F48444438384444442038444448BC
S11301C07F3854545418087E0901020C5252523E8E
S11301D07F0804047800447D40002040443D007FB3
S11301E01028440000417F40007C041804787C08F7
S11301F004047838444444387C141414080814144F
S1130200187C7C080404084854545420043F444097
S1130210203C4040207C1C2040201C3C4030403C82
S113022044281028440C5050503C4464544C44001E
S11302300836410000007F00000041360800100825
S1130240081008000000000011241FBECFEFD8E002
S1130250DEBFCDBF12E0A0E0B1E0EAE2F6E202C008
S113026005900D92A435B107D9F724E0A4E5B2E0D6
S113027001C01D92A337B207E1F70E944D0A0C9406
S113028013130C9400001F920F920FB60F921124B7
S11302902F933F934F935F936F937F938F939F938A
S11302A0AF93BF93CF93EF93FF93C091C600809118
S11302B05702813009F09DC091E080ED8C0F8A30A7
S11302C008F090E0911106C081E0C83709F080E0A1
S11302D0882311F180915902E82FF0E0E65FFE4F88
S11302E0C0838F5F8093590280935402883089F4CD
S11302F0E2E5F1E0A2E1B1E001900D928A95E1F727
S113030062E071E08AE091E00E94221010925702AC
S113031080E0809359026DC0CA3309F052C08091C5
S11303205402843008F44DC01092540210925702C3
S11303303091550260915802EAE0F1E080E041E03A
S113034050E09191242F983709F0252F320F9837D8
S113035009F4682F8F5F8730A1F7609358023093B8
S11303605502643038F062E071E08AE091E00E9466
S1130370221002C03130A1F089E0E9E4F1E0A2E109
S1130380B1E001900D928A95E1F762E071E08AE0B4
S113039091E00E94221010925502109259024AC014
S11303A06AE071E082E191E00E94221062E071E073
S11303B08AE091E00E942210109255021092590294
S11303C039C088E0E2E5F1E0A2E1B1E001900D92EC
S11303D08A95E1F762E071E08AE091E00E942210E0
S11303E0109257021092550210925902CB3339F4ED
S11303F009C0CB3339F08091570281111BC0CA3335
S113040039F418C081E0809357021092560214C048
S113041088E0E2E5F1E0A2E1B1E001900D928A9575
S1130420E1F762E071E08AE091E00E94221010920C
S1130430560202C010925602FF91EF91CF91BF91E4
S1130440AF919F918F917F916F915F914F913F9168
S11304502F910F900FBE0F901F9018951F920F921F
S11304600FB60F9211248F939F93AF93BF938091F4
S1130470680290916902A0916A02B0916B020196A0
S1130480A11DB11D8093680290936902A0936A0232
S1130490B0936B02BF91AF919F918F910F900FBE5C
S11304A00F901F9018951F920F920FB60F92112460
S11304B02F933F934F935F936F937F938F939F9368
S11304C0AF93BF93EF93FF934C9B13C0809168024B
S11304D09091690220916E0230916F02AC01421B2F
S11304E0530B509371024093700290936F02809368
S11304F06E02609170027091710280E090E00E943F
S1130500E80E9B01AC0160E070E080E89FE30E948C
S1130510400E20E030E64AE657E40E949A0F0E941B
S1130520B90E609376024D9913C0809177028F5F64
S1130530809377028530E1F191E0811101C090E070
S113054090937502833021F4109273020E94B00CD0
S11305504E9909C08091750291E0813009F490E0D0
S1130560891B809375024F9928C08091770281304E
S113057049F4809175028F5F843009F483E080939D
S113058075021BC0823049F4809175028F5F8630FA
S113059009F485E08093750210C0843071F4809171
S11305A075028F5F843009F485E08093750205C07D
S11305B01092770210927502CBCFFF91EF91BF9109
S11305C0AF919F918F917F916F915F914F913F91E7
S11305D02F910F900FBE0F901F9018951F920F929E
S11305E00FB60F9211248F939F938091780090916E
S11305F0790090936D0280936C029F918F910F907C
S11306000FBE0F901F901895CF93DF93CDB7DEB731
S113061062970FB6F894DEBF0FBECDBF92E1E1E260
S1130620F1E0DE01119601900D929A95E1F7E82F21
S1130630F0E0EE0FFF1F21E030E02C0F3D1FE20F32
S1130640F31F208131813093890020938800811128
S113065002C02B9A01C02B9862960FB6F894DEBFA5
S11306600FBECDBFDF91CF9108959F92AF92BF92FD
S1130670CF92DF92EF92FF920F931F93CF93DF936A
S1130680CDB7DEB72F970FB6F894DEBF0FBECDBF40
S1130690F62E942E59011F928F930AE511E01F93B1
S11306A00F93CE0101966C019F938F930E942910A2
S11306B01F92FF921F930F937E0196E0E90EF11CA7
S11306C0FF92EF920E9429101F929F921F930F9303
S11306D08E01055F1F4F1F930F930E9429100E94E4
S11306E0B00C60E080E00E94AF0D61E08DE591E028
S11306F00E949C0D6AE08AE00E94AF0D61E0C60191
S11307000E949C0D6AE08DE20E94AF0D61E08BE6D1
S113071091E00E949C0D64E18AE00E94AF0D61E0CB
S1130720C8010E949C0D64E18DE20E94AF0D61E05E
S11307308FE691E00E949C0D6EE18AE00E94AF0D6D
S113074061E0C7010E949C0D6EE18DE20E94AF0D35
S113075061E085E791E00E949C0D68E28AE00E94D6
S1130760AF0D61E0C5010E949C0D68E284E30E9424
S1130770AF0D61E088E791E00E949C0D0E94B40DEA
S11307800FB6F894DEBF0FBECDBF2F960FB6F89408
S1130790DEBF0FBECDBFDF91CF911F910F91FF90B0
S11307A0EF90DF90CF90BF90AF909F900895EF921D
S11307B0FF920F931F93CF93DF93CDB7DEB72F979D
S11307C00FB6F894DEBF0FBECDBFF82EE42E1F92F5
S11307D06F930AE511E01F930F93CE0106969F9342
S11307E08F930E9429101F92EF921F930F93CE01B3
S11307F00B969F938F930E9429101F92FF921F9331
S11308000F93CE0101969F938F930E9429100E940B
S1130810B00C809175020FB6F894DEBF0FBECDBF49
S1130820813009F052C060E080E00E94AF0D61E0C9
S11308308DE791E00E949C0D6FE080E00E94AF0D77
S113084061E088E891E00E949C0D6FE086E40E94DC
S1130850AF0D61E0CE0101960E949C0D69E180E03C
S11308600E94AF0D61E084E991E00E949C0D69E172
S113087087E30E94AF0D61E0CE0106960E949C0DB5
S113088069E18BE40E94AF0D61E08CE991E00E9484
S11308909C0D63E280E00E94AF0D61E08EE991E07F
S11308A00E949C0D63E286E40E94AF0D61E0CE01DC
S11308B00B960E949C0D63E28BE40E94AF0D61E0F5
S11308C085EA91E00E949C0DA9C0823009F052C0D3
S11308D060E080E00E94AF0D61E08DE791E00E944E
S11308E09C0D6FE080E00E94AF0D61E087EA91E02B
S11308F00E949C0D6FE086E40E94AF0D61E0CE0182
S113090001960E949C0D69E180E00E94AF0D61E0B8
S113091081EB91E00E949C0D69E187E30E94AF0D99
S113092061E0CE0106960E949C0D69E18BE40E9471
S1130930AF0D61E08CE991E00E949C0D63E280E0E0
S11309400E94AF0D61E08EE991E00E949C0D63E28C
S113095086E40E94AF0D61E0CE010B960E949C0DCF
S113096063E28BE40E94AF0D61E085EA91E00E94AE
S11309709C0D54C0833009F051C060E080E00E94B7
S1130980AF0D61E08DE791E00E949C0D6FE080E087
S11309900E94AF0D61E087EA91E00E949C0D6FE038
S11309A086E40E94AF0D61E0CE0101960E949C0D89
S11309B069E180E00E94AF0D61E08BEB91E00E9461
S11309C09C0D69E187E30E94AF0D61E0CE010696BC
S11309D00E949C0D69E18BE40E94AF0D61E08CE9FB
S11309E091E00E949C0D63E280E00E94AF0D61E003
S11309F084EC91E00E949C0D63E286E40E94AF0DBA
S1130A0061E0CE010B960E949C0D63E28BE40E9490
S1130A10AF0D61E085EA91E00E949C0D0E94B40D47
S1130A202F960FB6F894DEBF0FBECDBFDF91CF91E6
S1130A301F910F91FF90EF900895DF92EF92FF9234
S1130A400F931F93CF93DF93CDB7DEB764970FB6A1
S1130A50F894DEBF0FBECDBFE82ED42EF22E1F9227
S1130A606F930AE511E01F930F93CE0106969F93AF
S1130A708F930E9429101F92DF921F930F93CE0130
S1130A800B969F938F930E9429101F92EF921F93AE
S1130A900F93CE0101969F938F930E9429101F926A
S1130AA0FF921F930F93CE0140969F938F930E94C2
S1130AB029100E94B00C809175020FB6F894DEBF25
S1130AC00FBECDBF813009F06DC060E080E00E94B0
S1130AD0AF0D61E08DEC91E00E949C0D6AE080E036
S1130AE00E94AF0D61E088E891E00E949C0D6AE0ED
S1130AF086E40E94AF0D61E0CE0101960E949C0D38
S1130B0064E180E00E94AF0D61E084E991E00E941D
S1130B109C0D64E187E30E94AF0D61E0CE0106966F
S1130B200E949C0D64E18BE40E94AF0D61E08CE9AE
S1130B3091E00E949C0D6EE180E00E94AF0D61E0A7
S1130B408EE991E00E949C0D6EE181E40E94AF0D5C
S1130B5061E0CE010B960E949C0D6EE18BE40E9435
S1130B60AF0D61E085EA91E00E949C0D68E280E0AF
S1130B700E94AF0D61E089ED91E00E949C0D68E256
S1130B808DE20E94AF0D61E0CE0140960E949C0D63
S1130B9068E281E40E94AF0D61E08FED91E00E9474
S1130BA09C0D77C1823009F06DC060E080E00E9446
S1130BB0AF0D61E08DEC91E00E949C0D6AE080E055
S1130BC00E94AF0D61E087EA91E00E949C0D6AE00B
S1130BD086E40E94AF0D61E0CE0101960E949C0D57
S1130BE064E180E00E94AF0D61E081EB91E00E943E
S1130BF09C0D64E187E30E94AF0D61E0CE0106968F
S1130C000E949C0D64E18BE40E94AF0D61E08CE9CD
S1130C1091E00E949C0D6EE180E00E94AF0D61E0C6
S1130C208EE991E00E949C0D6EE181E40E94AF0D7B
S1130C3061E0CE010B960E949C0D6EE18BE40E9454
S1130C40AF0D61E085EA91E00E949C0D68E280E0CE
S1130C500E94AF0D61E089ED91E00E949C0D68E275
S1130C608DE20E94AF0D61E0CE0140960E949C0D82
S1130C7068E281E40E94AF0D61E08FED91E00E9493
S1130C809C0D07C1833009F06DC060E080E00E94D4
S1130C90AF0D61E08DEC91E00E949C0D6AE080E074
S1130CA00E94AF0D61E087EA91E00E949C0D6AE02A
S1130CB086E40E94AF0D61E0CE0101960E949C0D76
S1130CC064E180E00E94AF0D61E08BEB91E00E9453
S1130CD09C0D64E187E30E94AF0D61E0CE010696AE
S1130CE00E949C0D64E18BE40E94AF0D61E08CE9ED
S1130CF091E00E949C0D6EE180E00E94AF0D61E0E6
S1130D0084EC91E00E949C0D6EE181E40E94AF0DA1
S1130D1061E0CE010B960E949C0D6EE18BE40E9473
S1130D20AF0D61E085EA91E00E949C0D68E280E0ED
S1130D300E94AF0D61E089ED91E00E949C0D68E294
S1130D408DE20E94AF0D61E0CE0140960E949C0DA1
S1130D5068E281E40E94AF0D61E08FED91E00E94B2
S1130D609C0D97C0843009F06DC060E080E00E9463
S1130D70AF0D61E08DEC91E00E949C0D6AE080E093
S1130D800E94AF0D61E087EA91E00E949C0D6AE049
S1130D9086E40E94AF0D61E0CE0101960E949C0D95
S1130DA064E180E00E94AF0D61E08BEB91E00E9472
S1130DB09C0D64E187E30E94AF0D61E0CE010696CD
S1130DC00E949C0D64E18BE40E94AF0D61E08CE90C
S1130DD091E00E949C0D6EE180E00E94AF0D61E005
S1130DE083EE91E00E949C0D6EE181E40E94AF0DC0
S1130DF061E0CE010B960E949C0D6EE18BE40E9493
S1130E00AF0D61E085EA91E00E949C0D68E280E00C
S1130E100E94AF0D61E08BEE91E00E949C0D68E2B0
S1130E208DE20E94AF0D61E0CE0140960E949C0DC0
S1130E3068E281E40E94AF0D61E08FED91E00E94D1
S1130E409C0D27C0853029F564E180E00E94AF0D38
S1130E5061E08DEC91E00E949C0D6EE180E00E94C7
S1130E60AF0D61E083EF91E00E949C0D81E08093DF
S1130E7074028091680290916902A0916A02B09113
S1130E806B028093600290936102A0936202B0931C
S1130E9063020E94B40D64960FB6F894DEBF0FBED1
S1130EA0CDBFDF91CF911F910F91FF90EF90DF9015
S1130EB00895EF92FF920F931F93CF93DF9300D087
S1130EC01F92CDB7DEB7182F062F1F928F938AE596
S1130ED091E09F938F93CE0101967C019F938F9312
S1130EE00E94291061E080E00E94AF0D61E08EEF66
S1130EF091E00E949C0D68E080E00E94AF0D61E0EB
S1130F0081E092E00E949C0D6EE080E00E94AF0DB3
S1130F1061E081E092E00E949C0D64E180E00E9427
S1130F20AF0D61E084E092E00E949C0D6CE180E0F2
S1130F300E94AF0D61E087E092E00E949C0D68E2A0
S1130F4080E00E94AF0D61E0C7010E949C0D61E04A
S1130F5085E192E00E949C0D812F880F180F119556
S1130F60175E44E6612F8AE0800F0E94C30C44E6BA
S1130F70612F8BE0800F0E94C30C0E94B40D0F9070
S1130F800F900F900F900F900F900B3311F40E945D
S1130F90B00C0F900F900F90DF91CF911F910F9194
S1130FA0FF90EF9008950E94B00C809175028130FB
S1130FB0F1F460E080E00E94AF0D61E08DE192E029
S1130FC00E949C0D64E180E00E94AF0D61E08AE222
S1130FD092E00E949C0D6EE180E00E94AF0D61E002
S1130FE085E392E00E949C0D109272026EC08230E2
S1130FF019F560E080E00E94AF0D61E08DE192E0C0
S11310000E949C0D64E180E00E94AF0D61E08AE2E1
S113101092E00E949C0D6EE180E00E94AF0D61E0C1
S11310208CE392E00E949C0D80917602809372047E
S113103081E08093720249C0833019F560E080E05A
S11310400E94AF0D61E08DE192E00E949C0D64E18D
S113105080E00E94AF0D61E08AE292E00E949C0D64
S11310606EE180E00E94AF0D61E080E492E00E94B6
S11310709C0D80915A028093720481E080937202E5
S113108024C0843011F560E080E00E94AF0D61E07F
S11310908DE192E00E949C0D64E180E00E94AF0D1E
S11310A061E08AE292E00E949C0D6EE180E00E9481
S11310B0AF0D61E088E492E00E949C0D80915B0298
S11310C08093720481E0809372020E94B40D0895AB
S11310D0BC0180E090E00E94E80E20E030E040E8AF
S11310E05AE30E949A0F20E030E040EA50E40E9464
S11310F09A0F20E030E040E251E40E949A0F20E091
S113110030E040E251E40E94CF0D0E94B20ECB01C8
S11311100895BC0180E090E00E94E80E20E030E0F9
S113112040E85AE30E949A0F20E030E040EA50E49D
S11311300E949A0F20E030E048EC51E40E949A0F9C
S11311400E94B20ECB0108958352873010F46C33A1
S113115010F42B9A08952B9808959093C5008093CA
S1131160C40088E98093C10086E08093C20008959A
S1131170CF93DF93CDB7DEB766970FB6F894DEBF93
S11311800FBECDBF96E1E3E3F1E0DE0111960190DD
S11311900D929A95E1F7EDEC8E9FE12D1124E695E1
S11311A0E695E695F0E0EE0FFF1F81E090E08C0FEE
S11311B09D1FE80FF91F8081918190938B0080938C
S11311C08A0066960FB6F894DEBF0FBECDBFDF91DE
S11311D0CF9108951F920F920FB60F9211242F935F
S11311E03F934F935F936F937F938F939F93AF93AB
S11311F0BF93EF93FF939091750281E02091770262
S1131200213009F080E021E0913009F020E0222330
S113121059F0882349F0809120018F5F8F3109F4C0
S11312208EE18093200127C021E0923009F020E074
S1131230222369F0882359F080911F01865F8E363E
S113124009F484E680931F010E94B80814C021E0C9
S1131250933009F020E0222371F0882361F080911B
S11312601E018F5F893009F488E080931E0110927B
S11312700101109200019091750281E020917702A2
S1131280223009F080E021E0913009F020E02223AF
S113129059F0882349F080911D018F5F8F3109F443
S11312A08EE180931D0132C021E0923009F020E0EC
S11312B0222359F0882349F080911C01865F8E36E1
S11312C009F484E680931C0121C021E0933009F0E5
S11312D020E0222359F0882349F080911B018F5F7D
S11312E0893009F488E080931B0110C021E0943018
S11312F009F020E0222351F0882341F080911A0163
S11313008F5F8D3309F48CE380931A01FF91EF9181
S1131310BF91AF919F918F917F916F915F914F9109
S11313203F912F910F900FBE0F901F9018951F9211
S11313300F920FB60F9211242F933F934F935F9305
S11313406F937F938F939F93AF93BF93EF93FF9389
S11313509091750281E020917702213009F080E0BC
S113136021E0913009F020E0222359F0882349F04C
S1131370809120018150843009F485E0809320011C
S113138028C021E0923009F020E0222379F088235C
S113139069F080911F01882311F09AE001C0982F11
S11313A0891B80931F010E94B80813C021E0933069
S11313B009F020E0222369F0882359F080911E016E
S11313C0815009F481E080931E0110920101109272
S11313D000019091750281E020917702223009F09A
S11313E080E021E0913009F020E0222359F08823A5
S11313F049F080911D018150843009F485E0809387
S11314001D0132C021E0923009F020E0222369F06E
S1131410882359F080911C01882311F09AE001C0BF
S1131420982F891B80931C011FC021E0933009F081
S113143020E0222351F0882341F080911B01815048
S113144009F481E080931B010FC021E0943009F07E
S113145020E0222349F0882339F080911A01815039
S113146009F481E080931A01FF91EF91BF91AF914C
S11314709F918F917F916F915F914F913F912F91A8
S11314800F900FBE0F901F901895E0ECF0E0908144
S113149095FFFDCF8093C600089584B18E6084B912
S11314A083E08AB99CE797B99BB19C6E9BB998B1CC
S11314B09C7798B92FE33CE930938700209386000A
S11314C092EA909380009AE19093810020ED37E0B6
S11314D0309389002093880028EB3BE030938B0005
S11314E020938A0092E094BD85BD29EF27BD20E4B6
S11314F020937C002FEE20937A0010927B002EE341
S113150020937E0090936E009AE0909369008DBBC7
S113151084E080936800EDE6F0E080818061808360
S113152078940E946F0C87E690E00E94AD08412CED
S1131530512C320110E0812C912C5401C1E0D0E0F7
S11315400F2EFCE72F2E312CF02D03E0C090680203
S1131550D0906902E0906A02F0906B028091600280
S113156090916102A0916202B0916302C81AD90AF3
S1131570EA0AFB0A20911A0130E0A0E6BAEE0E94C2
S113158013102C2FC616D706E806F90608F42D2FDB
S1131590222339F18C2F90917402913009F08D2F10
S11315A08823F9F080911D018093200180911C0112
S11315B080931F010E94B80880911B0180931E0133
S11315C0D0930001D0930101D093740235E030939D
S11315D01D0182E380931C01E4E0E0931B01C093AE
S11315E01A018091680290916902A0916A02B091F7
S11315F06B0284199509A609B70986399105A105D5
S1131600B105C0F1112319F01130A1F025C080916A
S11316106C0290916D020E94680880935B02F10154
S113162080818C278083EEE7F0E0808180278083AF
S11316301C2F12C080916C0290916D020E94890847
S113164080935A02F10180818C278083EEE7F0E0D9
S11316508081802780831D2F40906802509069020A
S113166060906A0270906B0260915A0280915B02F2
S11316700E94A4088091680290916902A0916A0274
S1131680B0916B0288199909AA09BB09883C910594
S1131690A105B10598F18091770281110BC022E177
S11316A031E040915A0260915B02809176020E947F
S11316B035031CC0813049F440911E0160911F0123
S11316C0809120010E94D70311C0823059F42091E7
S11316D01A0140911B0160911C0180911D010E941F
S11316E01D0504C0843011F40E94D3078090680261
S11316F090906902A0906A02B0906B0280912001E0
S113170090E0880F991F20911E01289FB001299F06
S1131710700D1124072E000C880B990B0E94EA0E01
S11317209B01AC0160E070E080E792E40E94400E0F
S113173020E030E04AE754E40E949A0F6B017C01F8
S11317408091680290916902A0916A02B0916B0243
S113175020916402309165024091660250916702C3
S1131760BC01CD01621B730B840B950B0E94E80E28
S11317709B01AC01C701B6010E943B0E18160CF484
S11317804CC0809101010E940403809100018F5F8D
S11317908093000190911E01482F50E0292F30E0E2
S11317A0220F331F4217530709F473C0209101011C
S11317B03C2F981708F03D2F332331F09C2F211133
S11317C001C09D2F911102C09C2F01C09FEF88235F
S11317D011F0892F820F8093010190917702933049
S11317E061F4609173020E945907809173028F5FC4
S11317F08C3309F48D2F8093730280916802909149
S11318006902A0916A02B0916B0280936402909382
S11318106502A0936602B09367028091680290917A
S11318206902A0916A02B0916B0240915C025091EE
S11318305D0260915E0270915F02841B950BA60BA2
S1131840B70B2C2F883E9340A105B10508F42D2F2A
S1131850222309F47BCE8C2F90917202913009F0EF
S11318608D2F882309F472CE809172040E94450A58
S11318708091680290916902A0916A02B0916B0212
S113188080935C0290935D02A0935E02B0935F022A
S11318905DCED09300018D2F9ECF4298662311F028
S11318A0449A15C0449813C0AC01022E02C0559549
S11318B047950A94E2F740FF02C0459A01C0459853
S11318C0469A46982150310978F7429A089527E0BC
S11318D030E090E0E9CF60E00E944D0C0895CF9392
S11318E0DF933A9A3B9A3C9A3D9A3E9A439A429A9B
S11318F083EC99E00197F1F700C0000043988BE571
S113190094E40197F1F700C00000439A429881E201
S11319100E946B0C83E10E946B0C86E00E946B0CAE
S113192082EC0E946B0C80E20E946B0C89E00E94A6
S11319306B0C80E80E946B0C80E40E946B0CC8EF77
S1131940D1E061E080E00E944D0C2197D1F788E05E
S11319500E946B0C8CE00E946B0CDF91CF91089578
S113196080E80E946B0C80E40E946B0C109270045F
S113197010927104E8E7F2E080E794E01192E8172E
S1131980F907E1F70895262F26952695269590E0E8
S113199034E5239F800D911D1124442379F0FC012B
S11319A0E858FD4F677081E090E002C0880F991FEE
S11319B06A95E2F79081892B80830895FC01E858A9
S11319C0FD4F677081E090E002C0880F991F6A950F
S11319D0E2F7809590818923808308955F926F92C6
S11319E07F928F929F92AF92BF92CF92DF92EF92AB
S11319F0FF920F931F93CF93DF93562E262F30E041
S1131A004901880C991C880C991C820E931E181489
S1131A1019040CF05DC08901000F111F000F111F84
S1131A20000F111F021B130B612CA82EB12CC50132
S1131A3080975C01AA0CBB1CAA0CBB1CA80EB91E87
S1131A400F2EF1E7CF2EF4E0DF2EF02D0F2EF0E76E
S1131A50EF2EF4E0FF2EF02D2DC0FE01249130E096
S1131A60872D652D0E94071002C0359527958A950C
S1131A70E2F720FF0AC0F6016081670DF70180815B
S1131A8041E0860D0E94C30C09C0F6016081670D18
S1131A90F701808140E0860D0E94C30C7394872D6A
S1131AA090E080179107CCF26394862D90E088151E
S1131AB0990574F410161106BCF7862D652D0E9445
S1131AC00710E501C80FD11DC859DF4F712CC5CFD0
S1131AD08091700491E0980F852D880F880F850DF3
S1131AE0890F843518F4809370040EC0109270042A
S1131AF0E1E7F4E0808191E0980F852D880F880F4D
S1131B00880F8519890F808380917104803320F0B8
S1131B101092700410927104DF91CF911F910F9174
S1131B20FF90EF90DF90CF90BF90AF909F908F90F9
S1131B307F906F905F9008951F93CF93DF93EC0194
S1131B408881882341F0162F2196612F0E94EE0C84
S1131B5089918111FACFDF91CF911F9108958093DC
S1131B6070046093710408950F931F93CF93DF93D0
S1131B7080E80E946B0C80E40E946B0CC8E7D2E002
S1131B8000E714E061E089910E944D0CC017D10771
S1131B90C9F7DF91CF911F910F9108955058BB273A
S1131BA0AA270E94E60D0C94600F0E94520F38F091
S1131BB00E94590F20F039F49F3F19F426F40C9435
S1131BC04F0F0EF4E095E7FB0C94490FE92F0E94A8
S1131BD0710F58F3BA17620773078407950720F04B
S1131BE079F4A6F50C94930F0EF4E0950B2EBA2F0E
S1131BF0A02D0B01B90190010C01CA01A00111240F
S1131C00FF27591B99F0593F50F4503E68F11A16BA
S1131C10F040A22F232F342F4427585FF3CF46954B
S1131C2037952795A795F0405395C9F77EF41F166D
S1131C30BA0B620B730B840BBAF09150A1F0FF0F37
S1131C40BB1F661F771F881FC2F70EC0BA0F621F23
S1131C50731F841F48F4879577956795B795F79513
S1131C609E3F08F0B0CF9395880F08F09927EE0FA8
S1131C709795879508950E94250F08F481E00895AB
S1131C800E94540E0C94600F0E94590F58F00E9449
S1131C90520F40F029F45F3F29F00C94490F511181
S1131CA00C94940F0C944F0F0E94710F68F39923B6
S1131CB0B1F3552391F3951B550BBB27AA27621744
S1131CC07307840738F09F5F5F4F220F331F441F51
S1131CD0AA1FA9F335D00E2E3AF0E0E832D0915085
S1131CE05040E695001CCAF72BD0FE2F29D0660F72
S1131CF0771F881FBB1F261737074807AB07B0E8B5
S1131D0009F0BB0B802DBF01FF2793585F4F3AF0BA
S1131D109E3F510578F00C94490F0C94940F5F3F4B
S1131D20E4F3983ED4F3869577956795B795F79540
S1131D309F5FC9F7880F911D9695879597F9089528
S1131D40E1E0660F771F881FBB1F621773078407C4
S1131D50BA0720F0621B730B840BBA0BEE1F88F7D3
S1131D60E09508950E94B90E6894B1110C94940FF3
S1131D7008950E94790F88F09F5798F0B92F9927FA
S1131D80B751B0F0E1F0660F771F881F991F1AF062
S1131D90BA95C9F714C0B13091F00E94930FB1E025
S1131DA008950C94930F672F782F8827B85F39F024
S1131DB0B93FCCF3869577956795B395D9F73EF4FB
S1131DC090958095709561957F4F8F4F9F4F0895A3
S1131DD0E89409C097FB3EF49095809570956195C1
S1131DE07F4F8F4F9F4F9923A9F0F92F96E9BB2777
S1131DF09395F695879577956795B795F111F8CFF3
S1131E00FAF4BB0F11F460FF1BC06F5F7F4F8F4F5D
S1131E109F4F16C0882311F096E911C0772321F053
S1131E209EE8872F762F05C0662371F096E8862FEB
S1131E3070E060E02AF09A95660F771F881FDAF742
S1131E40880F9695879597F90895990F0008550F6F
S1131E50AA0BE0E8FEEF16161706E807F907C0F02C
S1131E6012161306E407F50798F0621B730B840B34
S1131E70950B39F40A2661F0232B242B252B21F40E
S1131E8008950A2609F4A140A6958FEF811D811DAE
S1131E90089597F99F6780E870E060E008959FEFE8
S1131EA080EC089500240A941616170618060906ED
S1131EB0089500240A9412161306140605060895BC
S1131EC0092E0394000C11F4882352F0BB0F40F444
S1131ED0BF2B11F460FF04C06F5F7F4F8F4F9F4F84
S1131EE0089557FD9058440F551F59F05F3F71F006
S1131EF04795880F97FB991F61F09F3F79F087956D
S1131F000895121613061406551FF2CF4695F1DFF5
S1131F1008C0161617061806991FF1CF8695710585
S1131F20610508940895E894BB2766277727CB01B9
S1131F3097F908950E94AD0F0C94600F0E94520F00
S1131F4038F00E94590F20F0952311F00C94490F9A
S1131F500C944F0F11240C94940F0E94710F70F382
S1131F60959FC1F3950F50E0551F629FF001729F3A
S1131F70BB27F00DB11D639FAA27F00DB11DAA1F49
S1131F80649F6627B00DA11D661F829F2227B00D96
S1131F90A11D621F739FB00DA11D621F839FA00D21
S1131FA0611D221F749F3327A00D611D231F849F71
S1131FB0600D211D822F762F6A2F11249F575040C8
S1131FC09AF0F1F088234AF0EE0FFF1FBB1F661F43
S1131FD0771F881F91505040A9F79E3F510580F00C
S1131FE00C94490F0C94940F5F3FE4F3983ED4F3A0
S1131FF0869577956795B795F795E7959F5FC1F7B0
S1132000FE2B880F911D9695879597F90895991B36
S113201079E004C0991F961708F0961B881F7A95DB
S1132020C9F780950895A29FB001B39FC001A39FF3
S1132030700D811D1124911DB29F700D811D1124FD
S1132040911D0895FB01DC0101900D920020E1F740
S11320500895AEE0B0E0EFE2F0E10C94EA120D89ED
S11320601E8986E08C831A8309838FEF9FE79E8302
S11320708D83AE01475E5F4F6F89788DCE010196E7
S11320800E944B10EF81F885E00FF11F10822E960D
S1132090E4E00C940613ABE0B0E0E1E5F0E10C946D
S11320A0DC126C017B018A01FC0117821682838198
S11320B081FFCCC1CE0101963C01F6019381F70169
S11320C093FD859193FF81917F01882309F4BAC11F
S11320D0853239F493FD859193FF81917F01853297
S11320E029F4B60190E00E944212E7CF912C212CF2
S11320F0312CFFE1F315D8F08B3279F038F48032CB
S113210079F08332A1F4232D20611DC08D3261F05A
S1132110803369F4232D216016C0832D8260382E0C
S1132120E32DE4603E2E2AC0F32DF8601DC037FC79
S11321302DC020ED280F2A3040F08E32B9F436FC41
S113214081C1232D2064322E19C036FE06C08AE0D8
S1132150989E200D1124922E11C0EAE02E9E200D8F
S11321601124222EF32DF0623F2E08C08C3621F468
S1132170832D8068382E02C0883641F4F70193FD20
S1132180859193FF81917F018111B3CF982F9F7D1A
S11321909554933028F40C5F1F4F9FE399830DC02F
S11321A0833631F0833771F0833509F059C021C08B
S11321B0F801808189830E5F1F4F88248394912CBA
S11321C0530113C02801F2E04F0E511CF801A08006
S11321D0B18036FE03C0692D70E002C06FEF7FEF5F
S11321E0C5010E9437124C018201F32DFF773F2E67
S11321F016C0280122E0420E511CF801A080B180D3
S113220036FE03C0692D70E002C06FEF7FEFC50199
S11322100E942C124C01F32DF0683F2E820133FCF6
S11322201BC0822D90E088169906B0F4B60180E2B6
S113223090E00E9442122A94F4CFF50137FC859174
S113224037FE81915F01B60190E00E944212211095
S11322502A9421E0821A91088114910471F7E8C04C
S1132260843611F0893641F5F80137FE07C06081E4
S11322707181828193810C5F1F4F08C060817181DD
S1132280072E000C880B990B0E5F1F4FF32DFF7662
S11322903F2E97FF09C090958095709561957F4F6B
S11322A08F4F9F4FF0683F2E2AE030E0A3010E9439
S11322B07E12882E861845C0853731F4232D2F7E53
S11322C0B22E2AE030E025C0932D997FB92E8F36A7
S11322D0C1F018F4883579F0B5C0803719F0883723
S11322E021F0B0C0E92FE061BE2EB4FE0DC0FB2D7D
S11322F0F460BF2E09C034FE0AC0292F2660B22E16
S113230006C028E030E005C020E130E002C020E152
S113231032E0F801B7FE07C0608171818281938148
S11323200C5F1F4F06C06081718180E090E00E5FFA
S11323301F4FA3010E947E12882E8618FB2DFF7763
S11323403F2E36FE0DC0232D2E7FA22E891458F465
S113235034FE0BC032FC09C0832D8E7EA82E05C02E
S1132360B82CA32C03C0B82C01C0B92CA4FE0FC0F8
S1132370FE01E80DF11D8081803321F49A2D997EB0
S1132380A92E09C0A2FE06C0B394B39404C08A2D3A
S1132390867809F0B394A3FC11C0A0FE06C0B21461
S11323A088F4280C922C9B180EC0B21460F4B60169
S11323B080E290E00E944212B394F7CFB21418F472
S11323C02B1802C0982C212CA4FE10C0B60180E367
S11323D090E00E944212A2FE17C0A1FC03C088E74D
S11323E090E002C088E590E0B6010CC08A2D8678A2
S11323F059F0A1FE02C08BE201C080E2A7FC8DE28D
S1132400B60190E00E944212891438F4B60180E3C8
S113241090E00E9442129A94F7CF8A94F301E80D57
S1132420F11D8081B60190E00E9442128110F5CF27
S1132430222009F442CEB60180E290E00E944212CA
S11324402A94F6CFF6018681978102C08FEF9FEF21
S11324502B96E2E10C94F812FC0105906150704057
S11324600110D8F7809590958E0F9F1F0895FC0159
S11324706150704001900110D8F7809590958E0FAF
S11324809F1F08950F931F93CF93DF93FB01238125
S113249021FD03C08FEF9FEF2CC022FF16C04681A1
S11324A05781248135814217530744F4A081B181B7
S11324B09D012F5F3F4F318320838C932681378189
S11324C02F5F3F4F3783268314C08B01EC01FB0140
S11324D00084F185E02D0995892BE1F6D801169643
S11324E08D919C911797019617969C938E931697AE
S11324F0CE01DF91CF911F910F910895FA01AA2780
S1132500283051F1203181F1E8946F936E7F6E5F32
S11325107F4F8F4F9F4FAF4FB1E03ED0B4E03CD0E0
S1132520670F781F891F9A1FA11D680F791F8A1FC3
S1132530911DA11D6A0F711D811D911DA11D20D02A
S113254009F468943F912AE0269F11243019305DE4
S11325503193DEF6CF010895462F4770405D4193D5
S1132560B3E00FD0C9F7F6CF462F4F70405D4A3322
S113257018F0495D31FD4052419302D0A9F7EACFEA
S1132580B4E0A6959795879577956795BA95C9F719
S113259000976105710508959B01AC010A2E06940C
S11325A05795479537952795BA95C9F7620F731FC5
S11325B0841F951FA01D08952F923F924F925F9202
S11325C06F927F928F929F92AF92BF92CF92DF923F
S11325D0EF92FF920F931F93CF93DF93CDB7DEB7A4
S11325E0CA1BDB0B0FB6F894DEBF0FBECDBF099438
S11325F02A88398848885F846E847D848C849B848F
S1132600AA84B984C884DF80EE80FD800C811B819C
S1132610AA81B981CE0FD11D0FB6F894DEBF0FBECB
S10D2620CDBFED010895F894FFCF3B
S113262A01012020202020202000202020202020FA
S113263A2000484848784C4C4C00010432050432C6
S113264A05D007CA08C409BE0AB80BA60CAC0DA665
S113265A0EA00FD00798086009280AF00AB80B8060
S113266A0C480D100ED80EA00F4552524F212020AF
S113267A20004552524F2120200025640053696EE0
S113268A616973205669746169730062706D00250B
S113269A53704F3200B043006D6D48670050617249
S11326AA616D6574726F7300726573702F6D696EF4
S11326BA202A20004E6976656C3032002500566F58
S11326CA6C756D65005600726573702F6D696E20A6
S11326DA004E6976656C3032202A004E6976656C44
S11326EA30322000566F6C756D65202A004167658B
S11326FA6E64616D656E746F0054656D706F006D04
S113270A696E00566F6C756D65200054656D706F47
S113271A202A005265616C697A61646F2000387CF2
S113272A00207C00307C005F5F5F5F5F5F5F5F5FFC
S113273A5F5F5F5F0020766F6C204F3200536169E0
S113274A64612053657269616C00506172616D65E0
S113275A74726F3A004E656E68756D0042504D0092
S113276A536174757230320054656D7065726174A8
S107277A757261000F
S9030000FC
